:1000000080313D28080008007E1480318B190B1CBC
:100010000D289E31F22680313B280B1F3B28210002
:10002000121D19282000121D19288631E32680315F
:100030003B282100111E26282000111E2628220000
:100040004B088A004A080A0080313B282100911E93
:1000500033282000911E3328220049088A004808CE
:100060000A0080313B282100911C3B282000911C74
:100070003B289F3113277E10090080313F288C30A8
:1000800084009E30850023001200C7001200C800C3
:100090001200C9001200CA001200CB001200CC00EE
:1000A0002C30840023308500C430FE000030FF0077
:1000B0009F311F27803163308400003085000D3070
:1000C000FE000030FF009F311F2780312100E90131
:1000D000EA01EB01EC01ED01EE01EF0121308400BA
:1000E000013085004C30FE000030FF009F311F279B
:1000F0008031A0308400013085002730FE000030C0
:10010000FF009F311F277E1020008A31722AD00005
:10011000500803190800500A8600870101080319D6
:10012000F6285008023E8600870101080319C028FE
:1001300050088600870114300106031DA5288F3062
:1001400086002330870001120800500886008701CE
:1001500011300106031DB2288F308600233087003E
:1001600001130800500892310F228031CC0030304A
:10017000C0002330C100CC30C2008531EF2508001B
:1001800050088600870114300106031DCD288F30EA
:10019000860023308700011608005008860087017A
:1001A00011300106031DDA288F30860023308700C6
:1001B00001170800500892310F228031CE003030F4
:1001C000BE002330BF00CE30C000963106268031FD
:1001D000003A031D08003030C0002330C100CE308B
:1001E000C2000030C3008831522008005008023E8F
:1001F00086008701010803193F29500886008701FE
:1002000012300106031D0A298F3086002330870033
:100210008110080050088600870114300106031D74
:1002200017298F30860023308700011008005008FE
:100230008600870111300106031D24298F308600B6
:1002400023308700011108005008860087015930CB
:100250000106031D31298F3086002330870081126B
:100260000800500892310F228031CD003030C0009C
:100270002330C100CD30C2008531EF250800500881
:1002800086008701FA300106031D6E299E31832600
:100290008031ED3A031D080090308600233087003E
:1002A000010C890C01392100C900903086002330EF
:1002B0008700010C0139CA000230CA35890B5D295B
:1002C00090308600233087000108013909074A046D
:1002D0004904CB004B0891319B210800500886004F
:1002E0008701FC30010603190800500886008701C9
:1002F000010A03190800500886008701AA30010688
:100300000319080050088600870112300106031DFA
:100310008F298F3086002330870081140800500811
:100320008600870114300106031D9C298F3086004A
:10033000233087000114080050088600870111301F
:100340000106031DA9298F3086002330870001157F
:10035000080050088600870159300106031DB629A0
:100360008F308600233087008116080050089231B4
:100370000F228031CF003030BE002330BF00CF309D
:10038000C000963106268031003A031D0800303047
:10039000C0002330C100CF30C2000030C30088311C
:1003A0005220080020004203031DE82940081F399D
:1003B000003A031DE8292100EB1703302000410615
:1003C000031DE62901302200E000E8292200E001B7
:1003D00020004208031D080040081F39023A031D8F
:1003E000080044080F39003A0319080044080F397F
:1003F000D600023056020318080020306C06031D98
:1004000008002100EB172000C41B152A44080F39EF
:100410000907303E860001308700403FDB00413F46
:10042000DC0044080F393C3E222A44080F390907F2
:10043000633E86008701403FDB00413FDC0044080B
:100440000F393E3E8600013087000108DA005A1855
:10045000332AFB30D600FF30D7005B085605DB009F
:100460005C085705382A04305B04DB0000305C046C
:10047000DC00C41B472A44080F390907303E8600B8
:10048000013087005B08C03F5C08C13F512A440827
:100490000F390907633E860087015B08C03F5C088F
:1004A000C13F03304106031D732A5B0886005C08C8
:1004B0008700811F682AC41B612A44080F393C3E0B
:1004C000642A44080F393E3E8600013087008114BB
:1004D0005B0886005C08870001155B0886005C08E5
:1004E00087008117080004305B06DB0000305C06E3
:1004F000DC005B0886005C088700811F9C2A7F3037
:10050000D6005B0886005C088700560881055B08FA
:1005100086005C08870001170530D0000030D1004C
:100520005C08D3005B08D2000230D4000030D50054
:1005300094311A248131A12A5B0886005C08870067
:100540000117043020005B06DB0000305C06DC0095
:10055000DA18B02A5B0886005C088700811FD52A5C
:10056000C41BB62A44080F393C3EB92A44080F3947
:100570003E3E86000130870081103B30D6005B088C
:1005800086005C088700560881050530D0000030E1
:10059000D1005C08D3005B08D2000230D4000030E8
:1005A000D50094311A248131DD2A3B30D6005B0816
:1005B00086005C08870056088105200044080F3932
:1005C000983ED600D7010E30D73D5608D8005708C0
:1005D000D900FE30D6005808860059088700560812
:1005E00081050800D30053088031872082312030F4
:1005F00020006C02031C08003D008E180800220039
:100600003B083706031D062B3A08360603190D2B47
:100610003B08B7003A08B600FF2A3408360221002A
:10062000D50022003508373B2100D600D61F282BE5
:100630002200340836022100D10022003508373B61
:100640002100D2005108FF3ED5007F30523DD60038
:100650005608803AD10093305102031D312B893066
:100660005502031C3A2B22003608783EB400EC30C9
:10067000373DB5002C30860023308700160001047A
:100680000319512B2C30860023308700403F210076
:10069000D100413FD2005108860052088700811BDB
:1006A000CA2B00302100A800A9000830AA000030A1
:1006B000AB00A03090319F2082313030C000233019
:1006C000C100A230C2009631682682318F30860088
:1006D000233087000108A000D401D7015708A03EAD
:1006E000860087015708A03E84000130850000087D
:1006F000010603197E2BD401D40A862B0130D100C8
:100700005108D70708305702031C6E2B2200380807
:10071000390403199F2B21005608803AD10022008A
:100720003908803A21005102031D9A2B2200380813
:1007300021005502031C9F2B2100D401D40A210063
:100740005403031DCA2BA030860000308700A03060
:100750008400013085000830D10016001A00D10B4A
:10076000AD2BA801A80AA030A9000030AA000830CB
:10077000AB0001308B31E12382312C3086002330F5
:1007800087002808C03F2908C13F22003708B5006C
:100790003608B4002C308600233087004231160022
:1007A00001040319E32B2C308600233087004231EB
:1007B000403F2100D100413FD2005108860052083D
:1007C0008700811B08009E31FD2682312100A8018F
:1007D0002030A9000130AA00AB01AB0A01308B31F7
:1007E000E1232C3086002330870042312808C03FA7
:1007F0002908C13F080000340034003400340034BC
:100800000034003400340034003400340034003448
:100810000034003400340034E63446340034E43428
:100820000034003400340034003400340034003428
:1008300000340034E3340034003400340034003435
:1008400000340034E7340034003400340034003421
:100850000034003465340034003400340034003493
:1008600000340034003400340034003400340034E8
:1008700000340034003400340034003400340034D8
:100880000034003400340034003454340034003474
:1008900000340034003400340034003400340034B8
:1008A0000034003400340034003458340034003450
:1008B0000034003400340034003400340034003498
:1008C00000340034003400344D34003450344A34A1
:1008D00000340034003449344C34513400344F3443
:1008E000523400340034003400344E340034463482
:1008F0004B3400340034003400340034003400340D
:100900000034003400340034003400340034003447
:100910000034003400340034003400340034003437
:100920000034003400340034003400340034003427
:100930000034003400340034003400340034003417
:100940000034003400340034003400340034003407
:1009500000340034003400340034003400340034F7
:1009600000340034003400340034003400340034E7
:1009700000340034003400340034003400340034D7
:1009800000340034003400340034003400340034C7
:1009900000340034003400340034003400340034B7
:1009A00000340034003400340034003400340034A7
:1009B0000034003400340034003400340034003497
:1009C0000034003400340034003400340034003487
:1009D0000034003400340034003400340034003477
:1009E0000034003400340034003400340034003467
:1009F000003400344D0803193D2D20006908031907
:100A0000252D093069020318252D6908FF3EFC00D9
:100A100022004E082000DC007C0A0F2DDC36890BFA
:100A20000E2D5C1C152D0130162D0030FD007D08AB
:100A30000319232D22008C1601302000DC005C08F5
:100A40002200CC07342D22002C2D09306906031D0D
:100A50002E2D22004C1C332D8C12342D0A306906A9
:100A6000031D342D21008C1601302000DC005C08B1
:100A7000E90701302200CD0208009E31E0268431D2
:100A80002C0870022000DC0022002D08713B2000A1
:100A9000DD0022002E08723B2000DE0022002F081D
:100AA000733B2000DF005F08031D602D5E08031DFF
:100AB000602D5D08031D602DFA305C02031CCC2DF7
:100AC00001302200D500CC2D2200D401D301E80151
:100AD0000230A22D00308C1A01302200D1005108C2
:100AE0002000DC002200540A2000772DDC35890B21
:100AF000762D5C08DD005D082200E8045108200026
:100B0000DC005C082200D30701302000DC005C0818
:100B10002200D40708305406031D682D0330A22D8F
:100B200000308C1A01302200D10051082000DC0076
:100B30005C082200D307531C9F2D0130A02D0030EC
:100B4000D2000430D500E42DE03022006806031DF9
:100B5000AC2D0130D000C92DF0306806031DB32D37
:100B60000130CF00C92D4F08EA005008E9005208B3
:100B70000319C62D91302000D5002330D6006830EF
:100B8000D7000130D8009731982784312200CF0157
:100B9000D0012200D501E42D220055082000DC0000
:100BA000DD015D08003A0319D62DC92D5C08013A14
:100BB0000319642D033A03196A2D013A0319902D84
:100BC000073A0319A42DC92D9E31E0267308AF0002
:100BD0007208AE007108AD007008AC000800410852
:100BE000A9004008A8009F31B027853128082904B2
:100BF000031D080040085C3E86000030413D870030
:100C00000108C70040085D3E86000030413D870076
:100C100001084706031908004708C300C401430838
:100C2000AF004408B00040085A3E86000030413D05
:100C30008700403FB100413FB20091314A218531E8
:100C40002F084007C5003008413DC6004508B500E3
:100C50004608B6004208B70040085A3E86000030F9
:100C6000413D8700403FB800413FB90093316F23B9
:100C7000853135083604031DD32E4708C8004008C7
:100C80005D3E86000030413D87000108480603199B
:100C9000A92E4808C300C4014308AF004408B000AF
:100CA00040085A3E86000030413D8700403FB10079
:100CB000413FB20091314A2185312F084007B500EC
:100CC0003008413DB6004808013EAA000030031834
:100CD0000130AB000F30A8000030A90095311D2570
:100CE00085312908B0002808AF0040085A3E860028
:100CF0000030413D8700403FB100413FB20091319B
:100D00004A2185312F084007C5003008413DC60003
:100D10004508B7004608B80040085A3E8600003033
:100D2000413D8700403FB900413FBA0093311E2347
:100D300085310F30A8000030A9004808013EAA0004
:100D4000003003180130AB0095311D25853128088E
:100D50003E2E0F30A8000030A90040085D3E8600FE
:100D60000030413D870001080E3EAA000030031804
:100D70000130AB0095311D252808C30040085D3EB9
:100D8000C4000030413DC500440886004508870086
:100D90004308810040085E3E86000030413D8700E8
:100DA0000130810208000F30A8000030A900470878
:100DB000013EAA00003003180130AB0095311D251B
:100DC00085312808012E6C03031DEF2E3D008E1A7D
:100DD000EF2E90011214121602302000EC003D009C
:100DE0001019121DFC2EFB302000E10061083D00AF
:100DF00090059131D32186313D008E1C022F2000B9
:100E0000121108001018121C122F8D31FE25863188
:100E10002100121504302000EC00FE30E1006108D2
:100E20003D009005101A121E182F9031E4208631D3
:100E30003D00101F402F121F2C2F73302000D000B8
:100E40000030D1000030D200D3000130D400003097
:100E5000D50094311A248631BF302000E1006108AA
:100E60003D0090059031B52086315C0803193A2F7A
:100E70000130DC025C08031D402F8A3100228631DC
:100E80003D00901A921E472F92318E228631901883
:100E9000921C5B2FFF302000D0007F30D10000304B
:100EA000D200D3000130D4000030D50094311A2490
:100EB00086313D009301043020006C020318622F3C
:100EC000121108003D00921DB32F2000E201B02F47
:100ED0000F082000ED006D0CE100E10C610C0F39F2
:100EE0002200DE00F7302000E10061083D0090059F
:100EF00020006D197F2F22005E083C3E822F2200C9
:100F00005E083E3E8600013087000108013920005E
:100F1000E1000130E10601086106FE396106810049
:100F200022005E08031D982F953162258631A72F78
:100F300072302000D0000030D1006D30D20000307F
:100F4000D3000030D400D50094311A24863101300A
:100F50002000E1006108E207043062020318B32FA9
:100F60003D009019682F2000121108002200E201B4
:100F7000DB01D801D701DD012000EA017F30DF006D
:100F800063088600640887005F08810504306306F3
:100F9000E30000306406E4007F30DF006308860071
:100FA000640887005F08810504306306E3000030B1
:100FB0006406E4007F30DF00670886006808870069
:100FC0005F0881052100EB01EC01ED012200A30186
:100FD000A401A50189318F21873103302000D00081
:100FE0000030D1000030D200D3000030D400D50052
:100FF00094311A2487318D317025080008000800CB
:10100000903086002330870020088100ED30913138
:10101000152108003030F0002330F1000130F200DB
:101020000030F30092314E2288318F308600233019
:1010300087008101903086002330870081012C30A9
:101040008600233087000030C03FC13FFA302200C5
:10105000B8000030B9003B083506031D31283A08B6
:101060003406031938283B08B5003A08B4002B2889
:101070001E30F700013092312E228831F0012030ED
:10108000F1000130F200F301F30A01308B316123EA
:101090002C3086002330870042317008C03F710831
:1010A000C13F08004108A9004008A8009F31D72788
:1010B000883128082904031D080040085D3E860089
:1010C0000030413D87000108C400C5014408AF005D
:1010D0004508B00040085A3E86000030413D870078
:1010E000403FB100413FB20091314A2188312F0881
:1010F0004007B5003008413DB6004308B80042083B
:10110000B70040085A3E86000030413D8700403F0E
:10111000B900413FBA0093311E2388310F30A80037
:101120000030A90040085D3E86000030413D870048
:101130000108013EAA00003003180130AB009531D0
:101140001D252808C40040085D3EC5000030413D13
:10115000C600450886004608870044088100013023
:10116000C40040085E3E86000030413D87004408D0
:10117000810708004108A9004008A8009F31B02756
:10118000883128082904031D08004208B500B6016B
:1011900040085C3E86000030413D87000108C300E6
:1011A000C4014308AF004408B00040085A3E86001E
:1011B0000030413D8700403FB100413FB2009131D6
:1011C0004A2188312F084007C5003008413DC6003C
:1011D0004508B7004608B80040085A3E860000306F
:1011E000413D8700403FB900413FBA0093311E2383
:1011F00088310F30A8000030A90040085C3E86000E
:101200000030413D87000108013EAA00003003186C
:101210000130AB0095311D252808C30040085C3E15
:10122000C4000030413DC5004408860045088700E1
:101230004308810040085E3E86000030413D870043
:101240000130810208002100EB170E302000D7008A
:101250009930D600D80156088600570887008101CA
:101260000130D6070030D73D0130FD007D08D8079A
:10127000580803192B290030F000F1002030F2004B
:101280000030F30020309031892089313D000E1765
:101290002000D90159083E3E8600013087008101B7
:1012A00059083C3E86000130870081010130FD0075
:1012B0007D08D90702305902031C4A290030F0008A
:1012C000F1000130F2000030F3006E3090318920DF
:1012D00089313D000E1328302000E3000030E40087
:1012E0002030EB006B08E700E8014208EF006F08D0
:1012F000031D7D291030EC0008000130D0000030C3
:10130000D1006F30D2000030D3000130D400003063
:10131000D50094311A2420302000EC000800200071
:10132000400E890C0339003A031D0800D42921001E
:10133000EB1708302000EC0008008C316124080015
:101340008931232108006F302100E9000030EA00D4
:101350006B140130EC00EB1708009531A92508004B
:101360008131D221080044086E3E2100E900EA01E3
:101370006B140130EC00EB1708002100EB17200084
:1013800044086E3E86008701420881000800023052
:10139000D0000030D1000030D200D3000030D400A3
:1013A000D50094311A2408004108DD00DE015E08F2
:1013B000003A0319DC29FF295D08003A0319AD2919
:1013C000013A0319B029023A0319B029063A031960
:1013D0009729033A03199D29013A0319C7290F3A9E
:1013E0000319A329013A0319A029033A0319B329C0
:1013F000013A0319BD29073A0319FF29FF290800FB
:1014000022005A08031D08000130DA005908031DA4
:1014100008000130D900023020006A06031D222A8C
:1014200063088600640887004131810163088600F3
:1014300064088700483081006308860064088700DC
:10144000811708006A03031D08002200DD01200047
:101450006B0A86008701083081004030F0000030C0
:10146000F100FF307005F2007F307105F3006B086A
:10147000023E860087017208C03F7308C13F6B08B7
:1014800086008701043081006B0886008701811780
:1014900001302200DD0020006708013EF00000302E
:1014A000683DF100700886007108870008308100EF
:1014B0004030F0000030F100FF307005F2007F3066
:1014C0007105F300670886006808870042317208DA
:1014D000C03F7308C13F67088600680887008030F6
:1014E000810008009F31EB278A319F3108278A311C
:1014F000913180218A313D302100D900E130D8007E
:101500003F30890B812AD80B812AD90B812A0032DE
:101510008B170B17230044082100E6002300450821
:101520002100E700230046082100E800C7308600BC
:1015300001308700DA308400003085000630D800A2
:1015400016001A00D80BA02AE6309131B7218A3153
:10155000E40064080319AF2AE630E500B02AE5018B
:1015600065080319E12A650A860087010108031D41
:10157000BB2A2030BC2A6530E0000030E100600862
:10158000DA006508023E860087010108031DCA2AA9
:101590002030CB2A6230E2000030E3006208DB003A
:1015A000DC30AC000230AD00650886008701010820
:1015B0009231D3228A310630AA00DA309131652186
:1015C0008A3165088231F2228A31A42A63088600B2
:1015D000640887000030011B0130F7000430630607
:1015E000E30000306406E40008306C06031D042BA1
:1015F00042087F393D00960016080319012B103070
:10160000022B04302000EC006A03031D4C2B4830F1
:10161000F3000030F400FF307305F5007F307405EF
:10162000F600630886006408870042317508C03FF1
:101630007608C13F9631CA268A31023022006206FE
:10164000031D2F2B200063088600640887000430E8
:101650008100630886006408870081170800770806
:10166000031D3F2B20006308860064088700483074
:101670008100630886006408870081170800200045
:1016800063088600640887000830810063088600CC
:1016900064088700811708002200A31F5E2B26081C
:1016A000270403195D2B0530213E86000130870099
:1016B000413F8A00403F0A008B31A3132000EA011A
:1016C0000800F800700803196D2B7835633E86001A
:1016D0008701403FF900413F752B7835303E860049
:1016E00001308700403FF900413FFA0079087A0451
:1016F000031D7D2BF001F1010800FF307105F4009E
:101700007F307205F500790886007A08870042313B
:101710007408C03F7508C13F7908013EF4000030ED
:101720007A3DF5007408860075088700730881000B
:101730004030F400790886007A0887007408810533
:10174000790886007A0887008115790886007A086A
:101750008700811770080319C42B7835633E860013
:101760008701403FF400413FF50004307406F60065
:1017700000307506F7007835633E860087017608ED
:10178000C03F7708C13FDC2B7835303E8600013002
:101790008700403FF400413FF50004307406F60036
:1017A00000307506F7007835303E8600013087003E
:1017B0007608C03F7708C13F7A08F1007908F00049
:1017C0000800B00028080319ED2B3035633E860071
:1017D0008701403FB100413FF52B3035303E860058
:1017E00001308700403FB100413FB2003108320470
:1017F000031DFD2BA801A9010800FF302905AC003D
:101800007F302A05AD00310886003208870042315A
:101810002C08C03F2D08C13F3108013EAC0000300C
:10182000323DAD002C0886002D0887002B08810072
:101830004030AC0031088600320887002C08810552
:101840003108860032088700811531088600320889
:101850008700811728080319442C3035633E860021
:101860008701403FAC00413FAD0004302C06AE0084
:1018700000302D06AF003035633E860087012E080C
:10188000C03F2F08C13F5C2C3035303E8600013010
:101890008700403FAC00413FAD0004302C06AE0055
:1018A00000302D06AF003035303E86000130870015
:1018B0002E08C03F2F08C13F3208A9003108A800F8
:1018C0000800803020004006031D0800C0302100C1
:1018D000EB00CD2C9C302100E9009830EA0000306C
:1018E000ED001230EC0008004208031DA32C420852
:1018F000F000F101F035F10DC630700784001830AA
:10190000713D80388500003F2100E900013FEA0079
:101910006A08F1006908F00002307007840071085D
:101920000318710A85000008EC006A08F1006908D4
:10193000F00003307007840071080318710A8500F5
:101940000008ED0008002100EB010800033042020E
:101950000318C72C4208F000F101F035F10DBC303E
:10196000700784001830713D80388500003F2100E9
:10197000E900013FEA00690884006A088500000860
:10198000F000F1017008EC007108ED000800210082
:10199000EB0108002100EB01080020004308F000E3
:1019A000F1017108003A0319D62CCA2C7008013ACB
:1019B00003196A2C033A0319742C013A0319A62C53
:1019C000CA2C080040081F39013A031D08004408CA
:1019D000031D0800063041060319072D1A2D6F0359
:1019E000031D1A2D85302100E9009830EA000030EF
:1019F000ED000930032D00302100E9009830EA00A5
:101A00000030ED003F30EC00C030EB001A2D4308F1
:101A1000F400F5017508003A03190F2D1A2D74080A
:101A2000213A0319EF2C033A0319FB2C013A03194D
:101A30001A2D1A2D2000400E890C0339013A031D7E
:101A40000800532D9F31522708006C302100E90017
:101A50000130EA000030ED000130EC00C130EB0055
:101A6000080080302100EB00200043082200EC0039
:101A70006C08F000200042089F31452708006B30B9
:101A80002100E9000130EA000030ED000130EC00F7
:101A90008130EB00080080302100EB00200042087C
:101AA0002200EB0008004108F400F5017508003A37
:101AB00003195B2D6F2D7408013A03196F2D033A3A
:101AC0000319252D013A03193F2D0A3A0319222D36
:101AD000033A0319312D013A03194B2D6F2D0800DC
:101AE0003D000E122100EB1BBC2D2200A31F852DF3
:101AF00002302000EA0022005708031D812D973193
:101B000031272200D901DA01080020006708013ED0
:101B1000F7000030683DF8007708860078088700F5
:101B2000083081004030F7000030F800FF307705C2
:101B3000F9007F307805FA0067088600680887009A
:101B400042317908C03F7A08C13F670886006808BB
:101B500087000C30810067088600680887008117BD
:101B600063088600640887000430810063088600EB
:101B700064088700811708002000C01FD12D0130A4
:101B8000EA0022005808031DC82D973131278D31F6
:101B90002200D901DA015B08031D08008A31002206
:101BA00008000230EA006708013EF7000030683D97
:101BB000F8007708860078088700083081004030F8
:101BC000F7000030F800FF307705F9007F30780526
:101BD000FA00670886006808870042317908C03F2C
:101BE0007A08C13F670886006808870004308100D2
:101BF00067088600680887008117C82D2100121128
:101C00003D009301900198010E30F5009930F400E9
:101C1000F601740886007508870081010130F40719
:101C20000030F53D0130F0007008F6077608031922
:101C3000092E163091009F3097007B309200F701FB
:101C40007708F0000130F035FF3E031D232E70357C
:101C5000203E860087010030C03F0030C13FC23FB8
:101C6000C33F0130F0007008F70708307702031C0B
:101C7000202E0E1796010E120E13F730F00070088A
:101C800090052100EB012200A301A401A5013D0064
:101C900090193D2E01302200DA000130D900D80120
:101CA000D701DF01F7017735633E860087010030F9
:101CB000C03FC13F7735303E86000130870000309D
:101CC000C03FC13F77083E3E86000130870081015A
:101CD00077083C3E86000130870081010130F0002A
:101CE0007008F70702307702031C532E28302000BB
:101CF000E3000030E40016303D0098004030F00072
:101D00000030F100FF307005F2007F307105F30004
:101D100072082000A2007308A3000830A10004305C
:101D2000A000A017EF0100302300C3000030C20064
:101D30000030C1000030C0002200D6012000EC01BC
:101D4000080012113D009301900198010E3021000E
:101D5000AD009930AC00AE012C0886002D0887003C
:101D600081010130AC070030AD3D0130A8002808EA
:101D7000AE072E080319AC2E16303D0091009F309F
:101D800097007B3092002100AF012F08A80001309E
:101D9000A835FF3E031DC82E2835203E860087014A
:101DA0000030C03F0030C13FC23FC33F0130A800F8
:101DB0002808AF0708302F02031CC52E3D000E1760
:101DC00096010E120E13F7302100A80028083D00DE
:101DD00090052100EB012200A301A401A5013D0013
:101DE0009019E32E01302200DA000130D900D80129
:101DF000D701DF012100AF012F35633E8600870147
:101E00000030C03FC13F2F35303E86000130870093
:101E10000030C03FC13F2F083E3E860001308700A2
:101E200081012F083C3E860001308700810101308E
:101E3000A8002808AF0702302F02031CFC2E283010
:101E40002000E3000030E40016303D0098004030F0
:101E50002100A8000030A900FF302805AA007F302B
:101E60002905AB002A082000A20021002B08200031
:101E7000A3000830A1000430A000A017EF0100303B
:101E80002300C3000030C2000030C1000030C00099
:101E90002200D6012000EC0108006B0886008701B3
:101EA000413FF9007908F400F50175082200250288
:101EB000031D5C2F740824020318602F2408F90006
:101EC0007908F400F5017408A4027508A53BF8012F
:101ED0007908780203187E2F210886008701780888
:101EE000483E84008501000881000130F400740838
:101EF000A1070130F4007408F807682F24082504AE
:101F00000319BF2F20006708013EF4000030683D30
:101F1000F500740886007508870008308100483095
:101F2000F4000030F500FF307405F6007F307505D1
:101F3000F700670886006808870042317608C03FCE
:101F40007708C13F6B0886008701011BB32F670824
:101F500086006808870048308100670886006808A6
:101F60008700811708006708860068088700083026
:101F70008100670886006808870081170800200034
:101F80006708013EF4000030683DF50074088600E3
:101F900075088700083081004030F4000030F500FB
:101FA000FF307405F6007F307505F700670886007E
:101FB0006808870042317608C03F7708C13F67084C
:101FC000860068088700043081006708860068087A
:101FD000870081172200260827040319F92F0530EE
:101FE000213E860001308700413F8A00403F0A00C1
:101FF0008F31A3135B08031D08008A3100220800FB
:102000000034423400343E343C343A343B344534BA
:102010000034433441343F343D342B3435340034C0
:102020000034E234E1348834E03414341E340034B3
:10203000003400341D34163404341A341F34003490
:10204000003406341B34073408342134203400347F
:1020500000342C3419340934173415342234003444
:102060000034113405340B340A341C342334003466
:102070000034003410340D34183424342534003442
:10208000003436340E340C34123427342634003401
:102090000034373438340F34333413342D340034AF
:1020A00000348734343400342F342E340034003478
:1020B000E334E5342834303400343234003400342E
:1020C00000340034003400348A3400342A348B3431
:1020D0000034593489345C345F34003400340034C3
:1020E000623463345A345D345E346034293453349A
:1020F000443457345B3454345534613447340034F9
:082100000034003400344034C7
:10210A0023001D121D160800F5007508F60001309F
:10211A00F2020030F33B720A0319730A031908002A
:10212A00760886008701700881000130F40074087F
:10213A00F6078C28AE002E08AD000130AA02003046
:10214A00AB3B2A0A03192B0A031908002D0886003B
:10215A008701280881000130AC002C08AD07A228AD
:10216A0001302300C0070030C13D0030C23D0030BD
:10217A00C33D22005F08031D08000130F00070080B
:10218A00D6075608031D0800FF30D60008002100B4
:10219A006E08B03E860001308700230019088100CE
:1021AA000130F00070082100EE0708306E020318B3
:1021BA00EE010130F00070082200E4070800121551
:1021CA00EF30FD007D0890058E1401302200DF00FB
:1021DA00D60175302000D0000030D1000030D20086
:1021EA00D3000030D400D50094311A2408006C08BA
:1021FA00031D08003D008E019201163091009F30A8
:10220A0097007B309200210012150B178B173D00A7
:10221A008E1911298E150C2901302000EC000800B6
:10222A00F0007008CE008B1321000C1222000C1251
:10223A00F0300032890B1E2921000C162000E9011A
:10224A000C302200CD00CC0121008C1222008C120D
:10225A008B170800F401F501701C37297208F4077E
:10226A007308F53D0130F235F30D890B3829013039
:10227A00F136F00C890B3D2970087104031D3129D0
:10228A007508F1007408F0000800B301B4012F1CAE
:10229A0052293108B3073208B43D0130B135B20DC5
:1022AA00890B53290130B036AF0C890B58292F08F6
:1022BA003004031D4C293408B0003308AF0008006D
:1022CA00AC00AD012A082D02031808009E31992698
:1022DA009131003A03196B292D082C07AB002B0802
:1022EA008600870101089231B02291310130AB009A
:1022FA002B08AD07672991302100A8002330A900D7
:10230A000330AA000030AB0092316E229131FA30CC
:10231A00A8000430A9009E31A02691316C3021001A
:10232A00A8001F30A9009E31A82608002100A80095
:10233A0028082200CE008B1321000C1222000C1256
:10234A00F0300032890BA62921000C162000E90181
:10235A000C302200CD00CC0121008C1222008C12FC
:10236A008B1708002100C7009130A8002330A9006C
:10237A009F31B027913128082904031DD0299130B3
:10238A00C0002330C1004708C2008831BA20913109
:10239A00C801C80AD129C801480808002200DF017B
:1023AA0074302000D0000030D1000030D200D300B9
:1023BA000030D400D50094311A2491313D008E109A
:1023CA001211101DED29FB30FD007D089005E6294C
:1023DA002200D6010800083021006F0203180D2AD6
:1023EA0022006608B83E86000130870001082300F3
:1023FA009A000130F00070082200E60708306602F1
:10240A000318E6010130F00070082100EF07080008
:10241A0011120800A800280A86008701010803197A
:10242A00222A2808860087010108FB3E840083309F
:10243A000318013E85000008080028088600870165
:10244A000108003E840090300318013E8500000810
:10245A000800FC00771D362AF0017C0894315824C4
:10246A009231F71C3D2AF001F00A7C089431582475
:10247A007C08983EF800F9010E30F93D7808FA0018
:10248A007908FB007A0886007B08870077088100B4
:10249A00080070085A3E86000030713D87007208B5
:1024AA00C03F7308C13F70085C3E86000030713D32
:1024BA008700810170085D3E86000030713D87000B
:1024CA00810170085E3E86000030713D87008101FF
:1024DA00080028085A3E86000030293D87002A084D
:1024EA00C03F2B08C13F28085C3E86000030293DCA
:1024FA008700810128085D3E86000030293D87005B
:10250A00810128085E3E86000030293D870081014E
:10251A000800181CAB2A20006B088600870180304F
:10252A000106031DA92A630886006408870084300F
:10253A000106031DA92A6B08860087010C30810059
:10254A006B088600870181173D001810DF30F00004
:10255A00700890050800A9006F080319B12A111A1A
:10256A00BA2A290823009A00D02A111222006708E1
:10257A00B83E860001308700210029088100013019
:10258A00A80028082200E707083067020318E701B5
:10259A0001302100EF02210011160800B0000230BC
:1025AA002D02031C08003008AE000430AE36890B39
:1025BA00DB2A2E08B100F030A80031089F317D27B0
:1025CA0092313007AF002C088600870131089F310D
:1025DA008E27923181002C0A860087012F089F31AD
:1025EA008E27810008007908D3007808D20077087E
:1025FA00D1007608D0000130FA020030FB3B7A0A9B
:10260A0003197B0A03190800520886005308870039
:10261A000108D4000130D2070030D33D50088600AB
:10262A0051088700540881000130D0070030D13D9D
:10263A00002B3808BE003708BD003608BC00350834
:10264A00BB000130B9020030BA3B390A03193A0A11
:10265A00031908003D0886003E0887000108BF00EC
:10266A000130BD070030BE3D3B0886003C088700AC
:10267A003F0881000130BB070030BC3D262B2200F9
:10268A008C018E01303021008C00FF308E00CF305B
:10269A0023008E008C01303024008C002100951319
:1026AA0022009D012700131293121216921611127C
:1026BA00911203302100A8000030A9009E31A02603
:1026CA009331FF302100A8000730A9009E31A826C7
:1026DA008B1508003608BC003508BB003708BD005A
:1026EA008D2B3D08860087013B0884003C08850045
:1026FA0000080106031D912B0130B8020030B93BD6
:10270A000130BB070030BC3D0130BA003A08BD07B2
:10271A0038083904031D762B38083904031D982B11
:10272A00B501B60108003B0886003C0887003D0851
:10273A008400850100080102B500B601031CB60336
:10274A00080021006E08A83E86000130870081013A
:10275A0023001D1DBD2B21006E08A83E86000130F6
:10276A0087008114220045088A0044080A00933130
:10277A0023009D1CCD2B21006E08A83E8600013047
:10278A0087000115220043088A0042080A00933193
:10279A0021006E08A83E860001308700010803194F
:1027AA00DD2B220041088A0040080A009331080004
:1027BA009031CC20080002306A06031DE72B8F31C6
:1027CA004D270800EA0122005D08031D182C20008D
:1027DA006708013EFA000030683DFB007A0886006F
:1027EA007B088700083081004030FA000030FB0087
:1027FA00FF307A05FC007F307B05FD006708860004
:10280A006808870042317C08C03F7D08C13F6708DD
:10281A008600680887000C3081006708860068080F
:10282A00870081170800DD010800302C22003A0ACF
:10283A007F3003193B060319272C0130BA070030F1
:10284A00BB3D0800BA01BB01080088310A20080014
:10285A008C31E22408005108003A0319382C7F3AD7
:10286A000319522C572C5008013A03192A2C033AFF
:10287A000319572C013A03192D2C063A0319572C20
:10288A00773A0319572C013A03191B2C073A0319F3
:10289A00572C013A0319572C572C5008FF3A0319A1
:1028AA00572C572C0800F5002030F6007008F1006C
:1028BA000130F135890B5E2C7508F2000130F235D2
:1028CA00FF3E031D642C72357107F3000130F335A6
:1028DA00FF3E031D6C2C7335F4007408F607760866
:1028EA008600870181137008031D852C7535303EDB
:1028FA008600013087007608C03F0030C13F8D2C2A
:10290A007535633E860087017608C03F0030C13FB7
:10291A0076088600870101137608043E860087013F
:10292A000117080021009112A630A8001330A9004F
:10293A009E31C826943121001112F030A8001130BE
:10294A00A9009E31D0269431083023009F008030A0
:10295A009D0024309E00E1309B0004309C00023030
:10296A002100A8000030A9009E31B8269431853094
:10297A002100A8001030A9009E31C0269431803071
:10298A002100A8001E30A9009E31B026E301E7010C
:10299A00E60108302100EF00EE012200E501E40122
:1029AA00210091160800F601F31FE22CF209F3093F
:1029BA00F20A0319F30AF601F60AF11FE92CF009E3
:1029CA00F109F00A0319F10A700871040319102DAC
:1029DA00F501F50AF11BFB2C0130F035F10D890BDD
:1029EA00F22C0130F4007408F507EF2C7108730219
:1029FA00031D012D70087202031C072D7008F202D4
:102A0A007108F33B0130F136F00C890B082D0130C7
:102A1A00F502031DFB2C76080319182DF209F30998
:102A2A00F20A0319F30A7308F1007208F0000800A9
:102A3A00AE01AB1F272DAA09AB09AA0A0319AB0AD3
:102A4A00AE01AE0AA91F2E2DA809A909A80A0319C1
:102A5A00A90A280829040319552DAD01AD0AA91B95
:102A6A00402D0130A835A90D890B372D0130AC0056
:102A7A002C08AD07342D29082B02031D462D2808E2
:102A8A002A02031C4C2D2808AA022908AB3B013054
:102A9A00A936A80C890B4D2D0130AD02031D402D1E
:102AAA002E0803195D2DAA09AB09AA0A0319AB0A54
:102ABA002B08A9002A08A80008002D30DC002000F5
:102ACA006D08FD39031D9F2D6D363F39E000013039
:102ADA00E035FF3E031D6D2D6035203EEB006B088F
:102AEA00E700E80104306706E70000306806E800FE
:102AFA006B0886008701010C890C0F390D3A031DFA
:102B0A009C2D4030F6000030F7006B08023E86002C
:102B1A008701403FF800413FF9000830FA000030D1
:102B2A00FB009231F82295318731B627080093319C
:102B3A00E0230800FD306D05E00004306006031D47
:102B4A0008008A31E62208002000C801C901E72DE1
:102B5A002100EB1722006003031DFB2D2000C8147F
:102B6A00FB2D2100EB17FB2D2100EB172000440859
:102B7A000F39003A0319FB2DC41BCE2D44080F3917
:102B8A000907303E860001308700403FF200413F8E
:102B9A00D72D44080F390907633E86008701403F55
:102BAA00F200413FF3007208860073088700811F14
:102BBA00FB2D7208860073088700011DFB2D01306A
:102BCA00C800FB2D40081F39F000F1017108003AD6
:102BDA000319F02DFB2D7008003A0319AD2D013AA7
:102BEA000319B62D033A0319B92DFB2D2100EB1F4A
:102BFA0008004830E9000030EA006B140230EC00AB
:102C0A0008003F08A9003E08A8009F31B027963166
:102C1A0028082904031D662E3E085C3E8600003003
:102C2A003F3D87000108C5003E085D3E8600003032
:102C3A003F3D8700010845060319662E4508C10075
:102C4A00C2014108AF004208B0003E085A3E860061
:102C5A0000303F3D8700403FB100413FB200913113
:102C6A004A2196312F083E07C30030083F3DC40071
:102C7A004308B5004408B6004008B7003E085A3E6B
:102C8A00860000303F3D8700403FB800413FB90011
:102C9A0093316F23963135083604031D562E0130C1
:102CAA0008000F30A8000030A9004508013EAA001C
:102CBA00003003180130AB0095311D2596312808E4
:102CCA00182E0030080040085C3E86000030413D66
:102CDA0087000108C700C80140085E3E8600003030
:102CEA00413D870001084802031808004808A80067
:102CFA0040085A3E86000030413D870001089F3156
:102D0A007D2796314207B500B6014708C300C401C2
:102D1A004308AF004408B00040085A3E860000301D
:102D2A00413D8700403FB100413FB20091314A2105
:102D3A0096312F084007C5003008413DC6004508B6
:102D4A00B7004608B80040085A3E86000030413DA8
:102D5A008700403FB900413FBA0093311E239631A4
:102D6A000F30A8000030A9004708013EAA00003031
:102D7A0003180130AB0095311D2596312808C7008C
:102D8A000130C3004308C807712E0830F200003032
:102D9A0021006D02083003196C020318E12E6C0839
:102DAA00F20022006208031DDC2E0130E02E6203CD
:102DBA00031DE12E0230E2007208F000F1017008F2
:102DCA002100EC027108ED3B20006308013EF0008F
:102DDA000030643DF10070088600710887007208AF
:102DEA00810048302200E10021006B1C132F2D2F97
:102DFA0022006108860087012100690884006A08A8
:102E0A008500000881000130E9070030EA3D013001
:102E1A00F00070082200E1070130F202720803197B
:102E2A000800FD2E2200610886008701210069083A
:102E3A0084006A088500000881000130E907003033
:102E4A00EA3D0130F00070082200E1070130F20289
:102E5A00720803190800172FD801D7010230200081
:102E6A006A06031D632F6708013EF3000030683DC0
:102E7A00F40073088600740887000830810048301F
:102E8A00F3000030F400FF307305F5007F3074055D
:102E9A00F600670886006808870042317508C03F57
:102EAA007608C13F670886006808870048308100B5
:102EBA0067088600680887008117080021006D08E6
:102ECA0020004702031D6D2F21006C0820004602D6
:102EDA000318762F47082100ED002000460821003C
:102EEA00EC009631CA264830F3000030F400FF3077
:102EFA007305F5007F307405F6002000630886002C
:102F0A006408870042317508C03F7608C13F6308EC
:102F1A0086006408870048308100630886006408D8
:102F2A008700811708005608F1005508F0009F3104
:102F3A00C327973170087104031D080055085D3EC8
:102F4A0086000030563D87000108D900DA01590889
:102F5A00F0005A08F10055085A3E86000030563DE6
:102F6A008700403FF200413FF30091312F21973112
:102F7A0070085507F6007108563DF7005808F90021
:102F8A005708F80055085A3E86000030563D87001B
:102F9A00403FFA00413FFB009231F82297310F304F
:102FAA00F0000030F10055085D3E86000030563DC5
:102FBA0087000108013EF200003003180130F300D7
:102FCA009431D8247008D90055085D3EDA000030E3
:102FDA00563DDB005A0886005B08870059088100C5
:102FEA000130D90055085E3E86000030563D870004
:102FFA005908810708000534013409340634A1341C
:10300A000134053407341934E0342934E7341534EB
:10301A00003425340134753401349534083481344C
:10302A0002349534013475340834813403349534C8
:10303A00053475340134053408341934013429341B
:10304A00053491340234953401347534033491349F
:10305A000334953406347534083415340034253471
:10306A00653405340734193400342934653481341D
:10307A000034C034343403344D34003469340034F9
:10308A0063340034723400346F34003463340034EF
:10309A006834003469340034703400342034003425
:1030AA0054340034653400346334003468340034F2
:1030BA006E3400346F3400346C3400346F340034AE
:1030CA00673400347934003420340034493400340D
:1030DA006E340034633400342E340034093402343C
:1030EA0029340034013401340034C0343234093410
:1030FA00043400340034023403340134013400341B
:10310A0009342134113401340034013422343F3477
:10311A00003407340534813403340834003401346C
:10312A0007340534013403340834003401341234CA
:10313A000134003402340034003400340834D83402
:10314A000434553400340134003401340234003478
:10315A0001340E34033441340034543400343234EC
:10316A000034553400345334003442340034C23409
:10317A0098343F349834AE349834043403340934E0
:06318A0004347334983494
:103D00009031CC20080022004E08080016309700A1
:103D1000080020001C1508002034203420342034F2
:103D20000D340A34200048082200A0008831002009
:103D300008006F0803199E2E0130080000300800AB
:103D400029082200EE00210028082200ED000800CA
:103D500029082300CE00210028082300CD000800F8
:103D600029082200C100210028082200C000080004
:103D700029082200C500210028082200C4000800EC
:103D800029082200C300210028082200C2000800E0
:103D900029082200C900210028082200C8000800C4
:103DA00029082200CB00210028082200CA000800B0
:103DB00029082200C700210028082200C6000800A8
:103DC0002B08F3002A08F2002908F1002808F00067
:103DD00008000130A8070030A93D0030AA3D00309E
:103DE000AB3D08002700131EF82E9F312B279E3174
:103DF000931E08009F31382708009030860023303A
:103E00008700220020088100ED3091319B210800BD
:103E1000E9302100A8001E30A9009E31D8269F312C
:103E20009E31892608009110220046084704031994
:103E3000080047088A0046080A009F31080064000D
:103E4000800101310130FE020030FF3B7F087E041B
:103E500003190034202F22006D086E040319352F3A
:103E60006E088A006D080A009F31270013120800AF
:103E700023004D084E040319422F4E088A004D08B6
:103E80000A009F31270093120800F3007308031DF6
:103E900008007008F100F20171082200B8007208F1
:103EA000B900080048302200A1000030A500083009
:103EB000A4001E30A7009230A600A3170800FC3013
:103EC000210099009801903027009B002200960164
:103ED00021001A1B0800682F22005508031D080046
:103EE0000130D5009E31E0267308AF007208AE00A5
:103EF0007108AD007008AC000800AB00AA012B1CD3
:103F0000852F2808A9002908AA070310A80D031067
:103F1000AB0C2B08031D7F2F2A080800A8000A30CD
:103F200028020318962F2808303E08001030280277
:103F300003189D2F2808373E0800583008005D30D0
:103F400020009B009A01911021009114FE30A800DE
:103F50000730A9009E31D8260F3020009C000800B1
:103F600028085E3E86000030293D87000108031DB9
:103F7000BB2F0130BC2F0030AA00AB012A08A800DB
:103F80002B08A900080070085E3E86000030713DD5
:103F900087000F300106031DCF2F0130D02F0030D6
:103FA000F200F3017208F0007308F100080028081D
:103FB0005E3E86000030293D87000F300106031D5C
:103FC000E32F0130E42F0030AA00AB012A08A8003B
:103FD0002B08A9000800933144239F319F315F27AC
:103FE0009F319E3186269F319F319F279F3194318B
:103FF00097249F318E31A1269F319031FC200800FB
:020000040001F9
:04000E00E439CF3FC3
:00000001FF
